{
  "contractName": "BetTokenFaucet",
  "abi": [
    {
      "inputs": [
        {
          "internalType": "address",
          "name": "_BetTokenAddress",
          "type": "address"
        },
        {
          "internalType": "address",
          "name": "_BetTokenOwnerAddress",
          "type": "address"
        }
      ],
      "stateMutability": "nonpayable",
      "type": "constructor"
    },
    {
      "stateMutability": "payable",
      "type": "fallback"
    },
    {
      "inputs": [],
      "name": "BetTokenERC20",
      "outputs": [
        {
          "internalType": "contract ERC20",
          "name": "",
          "type": "address"
        }
      ],
      "stateMutability": "view",
      "type": "function"
    },
    {
      "inputs": [],
      "name": "BetTokenOwner",
      "outputs": [
        {
          "internalType": "address",
          "name": "",
          "type": "address"
        }
      ],
      "stateMutability": "view",
      "type": "function"
    },
    {
      "inputs": [
        {
          "internalType": "uint256",
          "name": "amount",
          "type": "uint256"
        }
      ],
      "name": "withdraw",
      "outputs": [],
      "stateMutability": "nonpayable",
      "type": "function"
    }
  ],
  "bytecode": "0x608060405234801561001057600080fd5b506040516106403803806106408339818101604052810190610032919061011d565b816000806101000a81548173ffffffffffffffffffffffffffffffffffffffff021916908373ffffffffffffffffffffffffffffffffffffffff16021790555080600160006101000a81548173ffffffffffffffffffffffffffffffffffffffff021916908373ffffffffffffffffffffffffffffffffffffffff160217905550505061015d565b600080fd5b600073ffffffffffffffffffffffffffffffffffffffff82169050919050565b60006100ea826100bf565b9050919050565b6100fa816100df565b811461010557600080fd5b50565b600081519050610117816100f1565b92915050565b60008060408385031215610134576101336100ba565b5b600061014285828601610108565b925050602061015385828601610108565b9150509250929050565b6104d48061016c6000396000f3fe6080604052600436106100385760003560e01c80632e1a7d4d1461003e5780639623b71814610067578063b5f400da1461009257610039565b5b600080fd5b34801561004a57600080fd5b506100656004803603810190610060919061024d565b6100bd565b005b34801561007357600080fd5b5061007c6101c8565b60405161008991906102f9565b60405180910390f35b34801561009e57600080fd5b506100a76101ec565b6040516100b49190610335565b60405180910390f35b6103e8811115610102576040517f08c379a00000000000000000000000000000000000000000000000000000000081526004016100f9906103d3565b60405180910390fd5b60008054906101000a900473ffffffffffffffffffffffffffffffffffffffff1673ffffffffffffffffffffffffffffffffffffffff166323b872dd600160009054906101000a900473ffffffffffffffffffffffffffffffffffffffff1633846040518463ffffffff1660e01b815260040161018193929190610402565b6020604051808303816000875af11580156101a0573d6000803e3d6000fd5b505050506040513d601f19601f820116820180604052508101906101c49190610471565b5050565b60008054906101000a900473ffffffffffffffffffffffffffffffffffffffff1681565b600160009054906101000a900473ffffffffffffffffffffffffffffffffffffffff1681565b600080fd5b6000819050919050565b61022a81610217565b811461023557600080fd5b50565b60008135905061024781610221565b92915050565b60006020828403121561026357610262610212565b5b600061027184828501610238565b91505092915050565b600073ffffffffffffffffffffffffffffffffffffffff82169050919050565b6000819050919050565b60006102bf6102ba6102b58461027a565b61029a565b61027a565b9050919050565b60006102d1826102a4565b9050919050565b60006102e3826102c6565b9050919050565b6102f3816102d8565b82525050565b600060208201905061030e60008301846102ea565b92915050565b600061031f8261027a565b9050919050565b61032f81610314565b82525050565b600060208201905061034a6000830184610326565b92915050565b600082825260208201905092915050565b7f4d6f6e74616e7465206465207361717565206d6178696d6f3a2031303030207460008201527f6f6b656e73000000000000000000000000000000000000000000000000000000602082015250565b60006103bd602583610350565b91506103c882610361565b604082019050919050565b600060208201905081810360008301526103ec816103b0565b9050919050565b6103fc81610217565b82525050565b60006060820190506104176000830186610326565b6104246020830185610326565b61043160408301846103f3565b949350505050565b60008115159050919050565b61044e81610439565b811461045957600080fd5b50565b60008151905061046b81610445565b92915050565b60006020828403121561048757610486610212565b5b60006104958482850161045c565b9150509291505056fea26469706673582212203ca4f9ce9716bd97f287958d79869967f851b93cb0eda6d9d50d511df0b48c6164736f6c634300080a0033",
  "immutableReferences": {},
  "source": "// SPDX-License-Identifier: MIT\npragma solidity <0.9.0;\n\nimport \"@openzeppelin/contracts/token/ERC20/ERC20.sol\";\n\ncontract BetTokenFaucet {\n    ERC20 public BetTokenERC20;\n    address public BetTokenOwner;\n\n    constructor(address _BetTokenAddress, address _BetTokenOwnerAddress)\n        public\n    {\n        BetTokenERC20 = ERC20(_BetTokenAddress);\n        BetTokenOwner = _BetTokenOwnerAddress;\n    }\n\n    function withdraw(uint256 amount) public {\n        require(amount <= 1000, \"Montante de saque maximo: 1000 tokens\");\n        // Transfere do Owner informado no construtor para quem invocou withdraw\n        BetTokenERC20.transferFrom(BetTokenOwner, msg.sender, amount);\n    }\n\n    // REJEITA qualquer tentativa de enviar Ether\n    // A funo fallback  executada quando nenhuma das outras funes der match\n    // com a assinatura informada na transao OU se nenhum dado foi passado na\n    // transao e no existe uma funo \"receive\"\n    fallback() external payable {\n        revert();\n    }\n}\n",
  "sourcePath": "/home/fabianorodrigo/Projetos/solidity/dAppSoccerBet/backendOnChain/contracts/BetTokenFaucet.sol",
  "compiler": {
    "name": "solc",
    "version": "0.8.10+commit.fc410830.Emscripten.clang"
  },
  "schemaVersion": "3.4.3",
  "updatedAt": "2021-12-16T21:17:14.481Z",
  "devdoc": {
    "kind": "dev",
    "methods": {},
    "version": 1
  },
  "userdoc": {
    "kind": "user",
    "methods": {},
    "version": 1
  }
}